:020000042000DA
:1000000000000120910100207F03002081030020D7
:1000100083030020850300208703002000000000E8
:100020000000000000000000000000008903002024
:100030008B030020000000008D0300208F030020B0
:1000400091030020930300209503002097030020D4
:10005000990300209B0300209D0300209F030020A4
:10006000A1030020A3030020ED0700200D080020BD
:10007000A9030020AB030020AD030020AF03002044
:10008000B1030020B3030020B5030020250E00209B
:10009000B9030020BB030020BD030020BF030020E4
:1000A000C1030020C3030020C503002085140020E5
:1000B00079150020CB030020CD030020CF030020C2
:1000C000D1030020D3030020D5030020D703002054
:1000D000D9030020DB030020DD030020DF03002024
:1000E000E1030020E3030020E5030020E7030020F4
:1000F000E9030020EB030020ED030020EF030020C4
:10010000F1030020F3030020F5030020F703002093
:10011000F9030020FB030020FD030020FF03002063
:10012000010400200304002005040020070400202F
:10013000090400200B0400200D0400200F040020FF
:1001400011040020130400201504002017040020CF
:10015000190400201B0400201D0400201F0400209F
:10016000210400202304002025040020270400206F
:10017000290400202B0400202D0400202F0400203F
:1001800031040020330400200000000000000000C3
:100190004FF0000BDFF8BE020068DFF8B612096806
:1001A00001F0030100F01C00142801D14BF0020BF8
:1001B000002901D04BF0010BBBF1000F05D0A7487F
:1001C000A749DFF8722200F09FF8A64880470BF09D
:1001D000020ABAF1000F0CD0DFF86E02DFF86E12DF
:1001E00002680B680FB44FF000024FF0FF0302608B
:1001F0000B609D489D4A9E4B022808D1DFF83E12B5
:100200000A60DFF842120A60DFF836120B6001283C
:1002100008D1DFF82E120A60DFF82A120A60DFF830
:100220001E120B609348002809D193489349944AC1
:1002300000F032F893489449944A00F02DF894481D
:100240009449954A00F028F894489549DFF8E6214A
:1002500000F05AF8BBF1000F12D092489249DFF833
:10026000DA2100F051F80BF0020ABAF1000F07D0C2
:100270000FBC02600B6000BFAFF30080AFF30080E3
:10028000DFF828020FF2030E00474FF000004FF096
:100290000001DFF81CF2FEE72DE9F841884225D085
:1002A000B2EB010200D5FEE740EA010313F00303BD
:1002B00002D000F01DF819E04FF000039046121133
:1002C000F7D09A421CBFF0C8F0C103F10103F8D186
:1002D00008F00F08B8F1000F08D004780C7000F196
:1002E000010001F10101B8F10108F6D1BDE8F88182
:1002F00008B54FF0000303780B7000F1010001F125
:100300000101013AF7D108BD884237D000F0030659
:10031000002E14D04FF00405A5EB06044FF008079B
:1003200007FB06F8914669FA08F9002C07D080F817
:10033000009069FA07F900F10100013CF5E74FF080
:1003400000060F46091A88460911914614461546BB
:10035000B14206D018BFA0E8340206F10106B1424E
:10036000F8D108F00F08B8F1000F07D002704FEA7B
:10037000322200F10100B8F10108F4E77047FEE70E
:10038000FEE7FEE7FEE7FEE7FEE7FEE7FEE7FEE745
:10039000FEE7FEE7FEE7FEE7FEE7FEE7FEE7FEE735
:1003A000FEE7FEE7FEE7FEE7FEE7FEE7FEE7FEE725
:1003B000FEE7FEE7FEE7FEE7FEE7FEE7FEE7FEE715
:1003C000FEE7FEE7FEE7FEE7FEE7FEE7FEE7FEE705
:1003D000FEE7FEE7FEE7FEE7FEE7FEE7FEE7FEE7F5
:1003E000FEE7FEE7FEE7FEE7FEE7FEE7FEE7FEE7E5
:1003F000FEE7FEE7FEE7FEE7FEE7FEE7FEE7FEE7D5
:10040000FEE7FEE7FEE7FEE7FEE7FEE7FEE7FEE7C4
:10041000FEE7FEE7FEE7FEE7FEE7FEE7FEE7FEE7B4
:10042000FEE7FEE7FEE7FEE7FEE7FEE7FEE7FEE7A4
:10043000FEE7FEE7704700000000A2A2A2A2008033
:100440000340088003401080034030800340348024
:1004500003403880034018080240000000F00020EC
:1004600000000120DD180020000000000000000056
:10047000010000000000000000000020000000203B
:1004800090010020C0040020C0040020602C002047
:10049000602C0020602C0020F02C0020F02C00208C
:1004A000F02D0020F02D002000F00020051D002080
:1004B000591B0020000000000000000000000000A8
:1004C00010B5054C237833B9044B13B10448AFF38E
:1004D00000800123237010BDF02C002000000000DC
:1004E000382C0020084B10B51BB108480849AFF361
:1004F00000800848036803B910BD074B002BFBD0F0
:10050000BDE81040184700BF00000000382C002054
:10051000F42C0020602C00200000000080B483B088
:1005200000AF0346FB71094997F907305B09FA7977
:1005300002F01F02012000FA02F2603341F823208A
:100540000C37BD465DF8047B704700BF00E100E05A
:1005500080B483B000AF78600B46FB707B6803F01B
:1005600070427B68C3F313035B011344FA78920073
:10057000134403F100731A46012313600C37BD4680
:100580005DF8047B704700BF80B483B000AF786033
:100590000B46FB707B6803F070427B68C3F3130368
:1005A0005B011344FA789200134403F100731A4676
:1005B000002313600C37BD465DF8047B704700BF15
:1005C00080B483B000AF78600B46FB707B6803F0AB
:1005D00070427B68C3F313035B011344FA78920003
:1005E000134403F100731B68DBB218460C37BD4699
:1005F0005DF8047B704700BF80B584B000AFF86041
:10060000B9601346FB71FB68144A934204D0FB683F
:10061000134A934200D000BEFB79F868B9681A46C5
:1006200000F0A8F9FB681B68303318460321FFF778
:10063000ABFFFB681B68343318460221FFF7A4FFA9
:10064000FB681B68383318460021FFF79DFFFB68E5
:10065000044A5A621037BD4680BD00BFA42D002059
:10066000642D00203D0D002080B489B000AFF860FB
:10067000B9607A600023FB61FB682A4A934204D088
:10068000FB68294A934200D000BEBB68002B00D112
:1006900000BE7B68002B00D100BEFB68214A93425C
:1006A00003D0FB68204A934237D1BB68002B34D07B
:1006B0007B68002B31D0FB681B681B7DFB74FB68DB
:1006C0005A7BFB7C1343DAB2FB685A73FB7C03F062
:1006D0002003002B1ED010237B617B680F2B01D8D9
:1006E0007B687B610023BB610CE0FB681B68B96819
:1006F000FA690A4412781A70FB690133FB61BB691D
:100700000133BB61BA697B699A42EED37A68BB69EF
:10071000D31A7B607B68002BCDD12437BD465DF8B2
:10072000047B7047A42D0020642D002080B487B086
:1007300000AFF860B9607A6000237B610023FB742E
:10074000FB68284A934204D0FB68274A934200D0B2
:1007500000BEBB68002B00D100BE7B68002B00D11F
:1007600000BEFB681F4A934203D0FB681E4A9342B7
:1007700030D1BB68002B2DD07B68002B2AD0FB68C2
:100780001B681B7DFB74FB685A7BFB7C1343DAB24E
:10079000FB685A7315E0BA687B691344FA681268FB
:1007A0001278D2B21A707B6901337B61FB681B68D7
:1007B0001B7DFB74FB685A7BFB7C1343DAB2FB683E
:1007C0005A73FB7C03F00103002B03D07A697B682A
:1007D0009A42E0D37B6918461C37BD465DF8047B1E
:1007E000704700BFA42D0020642D0020684620F033
:1007F00007018D4689B500AF034800F0A7F9BD4653
:10080000BDE8894085467047A42D0020684620F049
:1008100007018D4689B500AF034800F097F9BD4642
:10082000BDE8894085467047642D002080B588B0BA
:1008300000AF786039607B684A4A934204D07B6895
:10084000494A934200D000BE7B68464A934204D096
:100850007B68454A934240F082807B683A689A60A0
:1008600001F04CF87B683F4A934203D13F4B1B6831
:10087000FB6102E03E4B1B68FB61FB69DA003B68F1
:10088000B2FBF3F3BB61BB695B087B617B699B09CE
:100890003B613B699B017A69D31AFB603B69DB01D1
:1008A000BA69D21AFB685B00D31AFA681344FB607A
:1008B0003B69B3F5803F00D300BE3B69B3F5803F91
:1008C0004DD23B69012B2AD97B681B680C33184633
:1008D0000721FFF73DFE7B681B683A69120AD2B216
:1008E0001A717B681B683A69D2B21A707B681B6800
:1008F0000C3318460721FFF747FE7B681B6830332F
:1009000018460721FFF724FEFB68FF2B00D900BE25
:100910007B681B68FA68D2B283F83C201FE07B68D2
:100920001B680C3318460721FFF712FE7B681B6813
:100930003A69120AD2B21A717B681B683A69D2B25C
:100940001A707B681B680C3318460721FFF71CFEE2
:100950007B681B68303318460721FFF715FE2037E8
:10096000BD4680BDA42D0020642D0020682C0020F1
:100970006C2C002080B584B000AFF860B9601346DD
:10098000FB71FB686D4A934204D0FB686C4A93424A
:1009900000D000BEFB68694A934216D1FB684FF055
:1009A00080421A60FB680A221A71664A654B9B6C8A
:1009B00043F0800393640A20FFF7B0FD614A614B66
:1009C0009B6C23F08003936414E0FB685E4A1A601A
:1009D000FB680B221A715B4A5A4B9B6C43F4807381
:1009E00093640B20FFF79AFD564A564B9B6C23F4F9
:1009F00080739364FB681B6800221A71FB681B6894
:100A000000221A72FB681B68083318460121FFF7A1
:100A10009FFDFB681B68083318460221FFF798FD0D
:100A2000FB681B68083318460021FFF791FDFB683F
:100A30001B68103318460421FFF7A6FDFB681B68EE
:100A4000103318460521FFF79FFDFB681B68343300
:100A500018460121FFF798FDFB681B6834331846E0
:100A60000021FFF791FDFB681B6838331846012110
:100A7000FFF78AFDFB681B68303318460521FFF736
:100A800083FDFB681B68303318460621FFF77CFDA9
:100A9000FB681B68303318460721FFF775FDFB68BC
:100AA0001B68383318460321FFF76EFDFB681B688F
:100AB000002283F84420FB681B68002283F848204A
:100AC000FB681B68002283F84C20F868B968FFF7C0
:100AD000ADFEFB681B68FA791A73FB68BA689A6006
:100AE000FB68FA791A73FB6800225A61FB680022DE
:100AF0001A61FB6800229A61FB6800221A62FB6897
:100B000000225A62FB680022DA61FB6800229A62C6
:100B1000FB680022DA62FB6800221A63FB6800228D
:100B20005A63FB6800229A63FB680022DA63FB6861
:100B300000225A731037BD4680BD00BFA42D00208F
:100B4000642D0020008003400000014080B584B087
:100B500000AF78607B68774A934204D07B68764A1E
:100B6000934200D000BE7B68724A934204D07B68F7
:100B7000714A934240F0DB807B681B681B7ADBB2D2
:100B800003F00F03FB73FB7B0C2B00F2CE8001A262
:100B900052F823F0C90B00202B0D0020E70B00209A
:100BA000410C0020050C00202B0D0020230C002000
:100BB0002B0D00202B0D00202B0D00202B0D0020D5
:100BC0002B0D0020050C00207B689B6A002B00D1B8
:100BD00000BE7B689B6A002B04D07B689B6A7868A8
:100BE0009847A4E0A3E07B685B6A002B00D100BEBD
:100BF0007B685B6A002B04D07B685B6A78689847E7
:100C000095E094E07B681B6A002B00D100BE7B68F6
:100C10001B6A002B04D07B681B6A7868984786E0C3
:100C200085E07B68DB69002B00D100BE7B68DB6957
:100C3000002B04D07B68DB697868984777E076E022
:100C40007B681B68283318460021FFF7B9FC034670
:100C5000002B0CD07B68DB6A002B00D100BE7B68C8
:100C6000DB6A002B03D07B68DB6A786898477B6877
:100C70001B68283318460121FFF7A2FC0346002B0E
:100C80000CD07B681B6B002B00D100BE7B681B6BFC
:100C9000002B03D07B681B6B786898477B681B68C8
:100CA000283318460221FFF78BFC0346002B0CD09B
:100CB0007B685B6B002B00D100BE7B685B6B002BFD
:100CC00003D07B685B6B786898477B681B68283328
:100CD00018460321FFF774FC0346002B0CD07B68F9
:100CE0009B6B002B00D100BE7B689B6B002B03D05D
:100CF0007B689B6B786898477B681B68283318462D
:100D00000421FFF75DFC0346002B0DD07B68DB6BF5
:100D1000002B00D100BE7B68DB6B002B04D07B680E
:100D2000DB6B7868984702E001E000BE00BF103737
:100D3000BD4680BDA42D0020642D002080B586B066
:100D400000AF78607B68354A934204D07B68344AB0
:100D5000934200D000BE7B681B69002B00D100BE0F
:100D60007B685B69002B00D100BE7B682B4A9342F5
:100D700003D07B682A4A93424CD17B681B69002BC5
:100D800048D07B685B69002B44D07B681B681B7D67
:100D9000FB737B685A7BFB7B1343DAB27B685A7325
:100DA000FB7B03F02003002B24D010233B617B68E6
:100DB0005A697B689B69D31ABB60BB680F2B01D84B
:100DC000BB683B6100237B6110E07B681B687A682D
:100DD00011697A6892690A4412781A707B689B6973
:100DE0005A1C7B689A617B6901337B617A693B6934
:100DF0009A42EAD37B689A697B685B699A4209D117
:100E00007B6800225A617B681B6804331846012105
:100E1000FFF7BAFB1837BD4680BD00BFA42D0020E8
:100E2000642D002080B582B000AF0F4B5B68FB7172
:100E30000D4B9B68DAB2FB791340FB71FB7903F031
:100E40000203BB71BB79002B01D000F0E7F8FB79FE
:100E500003F001037B717B79002B01D000F006F8D1
:100E60000837BD4680BD00BF0060014080B584B03A
:100E700000AF634B1B78022B3FD0052B6BD0012BAF
:100E800040F0AD805F4B1B889BB2002B30D05E4B97
:100E90001A685C4B1B889BB21046194600F006FA94
:100EA000F860584B1B889BB21A46FB689A420FD9D0
:100EB000544B1B889AB2FB689BB2D31A9AB2514B1F
:100EC0001A80514B1A68FB6813444F4A13600EE0B6
:100ED0004C4B00221A804D4B1B68002B03D0484B13
:100EE00002221A7003E0464B03221A7004E003E06A
:100EF00000BE00F0B5F97FE07EE0444B1B68002B9C
:100F000024D0434B1A68414B1B681046194600F029
:100F1000CDF9B8603D4B1B68BA689A420CD23B4B86
:100F20001A68BB68D31A394A1360394B1A68BB6810
:100F30001344374A13600DE0364A364B9B6823F062
:100F4000010393602E4B03221A7003E000BE00F0F1
:100F500087F951E050E02D4B1B68002B1BD12E4B25
:100F60001B68002B14D02C4B1B682948984702465D
:100F7000264B1A60254B1B68002B0CD1254A254BAC
:100F80009B6823F0010393601D4B03221A7002E05B
:100F900000BE00F065F91D4B1B68002B09D11D4AEE
:100FA0001C4B9B6823F001039360154B03221A70BE
:100FB00022E0174B1A68154B1B681046194600F0C3
:100FC00075F97860114B1A687B68D31A0F4A136061
:100FD0000F4B1A687B6813440D4A13600CE00D4AEE
:100FE0000C4B9B6823F001039360002000F018F97C
:100FF000034B00221A7000BF1037BD4680BD00BFF2
:10100000312D0020142D0020102D00201C2D00203B
:10101000182D0020006001402C2D002080B584B0E8
:1010200000AF794B1B69FB81FB8923F4FF4323F05D
:101030007F03BB81FB89FB72744B1B78052B00F28D
:10104000D88001A252F823F061100020DD110020A9
:10105000DD110020B910002007110020B11100207F
:10106000BB89002B27D0FB7AF12B06D0FB7ABB7211
:10107000BB7A184600F04CF91DE0654B00221A803F
:10108000644B1B68624A128892B21344FA7A1A704F
:101090005F4B1B889BB201339AB25D4B1A805D4B4C
:1010A0001B685B4A128892B2134400221A70574B95
:1010B00004221A70A4E0A3E0BB89002B22D0FB7AA3
:1010C0007B72554B1B78DBB27A7A9A4215D1504B22
:1010D00000221A804F4B1B684D4A128892B213446B
:1010E0007A7A1A704A4B1B889BB201339AB2484BEA
:1010F0001A80464B04221A7004E07B7A184600F0EE
:1011000007F97DE07CE0BB89002B06D0FB7A3B72BF
:101110003B7A184600F0FCF849E03E4B1A683C4B1D
:101120001B889BB2013B13441B78F12B16D1394B22
:101130001B68374A128892B21344FA7A1A70354BF8
:101140001A68334B1B889BB2013B13441B7818462B
:1011500000F0DEF82D4B00221A7028E02C4B1B8883
:101160009AB22E4B1B889A4210D2FB7AFB71294B04
:101170001B68274A128892B21344FA791A70244BDA
:101180001B889BB201339AB2214B1A80204B1B88DB
:101190009AB2224B1B889A4209D11D4B1B889BB2E5
:1011A000184600F03DF8194B00221A7028E027E09D
:1011B000BB89002B0BD1174B1B680133FA7A1A70CD
:1011C000022000F02DF8114B00221A7018E0FB7A73
:1011D000BB71BB79184600F09BF811E0BB89002B6E
:1011E00006D0FB7A7B717B79184600F091F807E016
:1011F00006E0002000F014F8044B00221A7000BF33
:101200001037BD4680BD00BF00600140312D002079
:10121000262D0020202D00200C2D0020242D002024
:1012200080B582B000AF0346FB800A4B1B68002BE1
:101230000DD0084B1B68084A1168FA880846114609
:101240009847044B00221A60044B00221A7008379A
:10125000BD4680BD282D0020202D0020302D0020EF
:1012600080B582B000AF0E4B1B78DBB2002B13D0E1
:101270000C4B1B889BB21846FFF7D2FF0A4A0A4B59
:101280001B6843F001031360074B1B6803F0010365
:101290007B607B68002BF7D10837BD4680BD00BF5F
:1012A000302D0020262D00200060014080B485B044
:1012B00000AF78603960154A144B1B6823F00403B3
:1012C00013600023FB60114B5B6803F00103BB60FC
:1012D0000DE00E497A68FB6813441B780B61FB68CC
:1012E0000133FB60094B5B6803F00103BB60BB6823
:1012F000002B03D0FA683B689A42EAD3FB68184691
:101300001437BD465DF8047B704700BF00600140A4
:1013100080B582B000AF0346FB71064B1B68002B03
:1013200004D0044B1B68FA79104698470837BD462D
:1013300080BD00BF342D002090B484B000AFF860B1
:10134000B9607A60FB704B484B4B1A68F9781346CA
:101350009B001344DB01034403F5E07359604749E4
:10136000454B1A6813469B0013449B000B44FA68D4
:101370005A604249404B1A6813469B0013449B0035
:101380000B44BA689A603D483B4B19683B4C3A4B5A
:101390001A6813469B0013449B00234408335B6880
:1013A0001A0C12040B469B000B449B0003440833A9
:1013B0005A607B68B3F5803F0FD97B68A3F5803313
:1013C0002F4A1361BB6803F580332D4AD360FB6855
:1013D00003F580332A4A936019E02848264B1A689F
:1013E000264C254B19680B469B000B449B0023445D
:1013F00008335B68796889B2194313469B0013442C
:101400009B000344083359601D4B00221A611B489E
:10141000194B1A68194C184B19680B469B000B4462
:101420009B00234408335B6843F4E00113469B00B0
:1014300013449B000344083359600E490E4B1A684D
:1014400013469B001344DB010B4403F5E0730122B8
:101450001A600849084B1A6813469B001344DB01C5
:101460000B4403F5E47300225A601037BD4690BC6C
:10147000704700BF00002842502D0020004001406E
:10148000382D0020684620F007018D4691B500AF49
:10149000344A354B1B6803F52873012142F82310A9
:1014A0003248314B1A68314C2F4B19680B469B0060
:1014B0000B449B00234408335B6823F4E00113468C
:1014C0009B0013449B00034408335960264B1B6860
:1014D0000133254A1360244B1B68042B02D1224B95
:1014E00000221A60224B1B69002B17D0214B1B686E
:1014F000042B03D11F4B00221A6004E01D4B1B6814
:1015000001331C4A13601A4B9868194BD968184B61
:101510001A69174B1B7DFFF70FFF1EE01349124B93
:101520001A6813469B0013449B000B4408335B6806
:1015300003F4E003002B10D10B4B00221A600D4B7B
:1015400000221A600A4B01221A70094B5B68002BBB
:1015500003D0074B5B6801209847BD46BDE891402A
:101560008546704700002842542D0020004001406D
:10157000382D0020502D0020684620F007018D46B0
:1015800081B583B000AF384B1B683B603B6803F408
:1015900070633B603B68002B2FD03449344B1A6892
:1015A00013469B001344DB010B4403F502731B68D5
:1015B000002B0AD02F4B02221A702E4B5B68002B97
:1015C00003D02C4B5B68022098472849284B1A68A7
:1015D00013469B001344DB010B4403F502735B6865
:1015E000002B0AD0234B03221A70224B5B68002B7E
:1015F00003D0204B5B68032098471B4B1B683B6064
:101600003B6803F470433B603B68002B0AD0194BE6
:1016100004221A70174B5B68002B03D0154B5B68D4
:101620000420984700237B6014E010497A68134631
:101630009B001344DB010B4403F5E47301221A60A1
:101640000A4A7B6803F52873012142F823107B685E
:1016500001337B607B68032BE7D90C37BD46BDE8BF
:1016600081408546704700BF00400140000028428D
:10167000542D0020382D002080B483B000AF0346E5
:10168000FB71094997F907305B09FA7902F01F02EB
:10169000012000FA02F2203341F823200C37BD4626
:1016A0005DF8047B704700BF00E100E080B483B0C8
:1016B00000AF0346FB71094997F907305B09FA79D6
:1016C00002F01F02012000FA02F2603341F82320E9
:1016D0000C37BD465DF8047B704700BF00E100E0B9
:1016E00080B582B000AF1A4A194B9B6C43F480134B
:1016F0009364174A164B9B6C43F0F073936400237A
:101700007B6012E0134A7B6813441B785BB2184677
:10171000FFF7B2FF0F4A7B6813441B785BB2184691
:10172000FFF7C4FF7B6801337B607B681F2BE9D91F
:10173000074A074B9B6C23F0F0739364044A044BF5
:101740009B6C23F4801393640837BD4680BD00BFB3
:1017500000800340442B002080B485B000AF0346D6
:101760003960FB71FB79FB60FB681F2B00D900BE61
:10177000FB681F2B05D8054AFB6852F823303A68EE
:101780001A601437BD465DF8047B7047C42A0020F8
:1017900080B483B000AF78604FF0FF3318460C3749
:1017A000BD465DF8047B704780B483B000AF7860BD
:1017B000FEE700BF80B483B000AF786039603B685B
:1017C0004FF400525A60002318460C37BD465DF8AE
:1017D000047B704780B483B000AF78600123184663
:1017E0000C37BD465DF8047B704700BF80B485B000
:1017F00000AFF860B9607A60002318461437BD4620
:101800005DF8047B704700BF80B485B000AFF8601E
:10181000B9607A60002318461437BD465DF8047B32
:10182000704700BF80B485B000AFF860B9607A60DF
:101830003B60002318461437BD465DF8047B7047B3
:1018400080B586B000AF78601F4B1B68002B02D1BB
:101850001D4B1E4A1A601C4B1B687B61EFF308830B
:101860003B61194B1A683B699A420FD2164B1A68B2
:101870007B681A443B699A421AD900200121144A14
:101880001923FFF7CFFF0120FFF78EFF114BFB60FD
:101890000D4B1A687B681A44FB689A4208D90020ED
:1018A00001210D4A1923FFF7BDFF0120FFF77CFF3F
:1018B000054B1A687B681344034A13607B6918461A
:1018C0001837BD4680BD00BF582D0020F02D0020E8
:1018D000642B002000F00020802B002080B500AF9A
:1018E00000F0F6F8044A044B5B6943F4007353615B
:1018F000FEF7A0FD80BD00BF00ED00E080B588B020
:1019000000AF2F4BD3F8983003F08063FB61FB6985
:10191000002B4BD12A4BD3F8983003F48053BB6192
:10192000BB69002B15D1274B274A1A60274B264A43
:101930001A60274B244A1A60264B274A1A60274B05
:10194000214A1A60264B204A1A60264B1E4A1A600A
:101950002BE0254A3B1D1068516803C3184BD3F890
:101960009C309B0903F007037B613A1D7B6913449C
:101970001B78FB74FB7C012B0AD0022B0DD0002BB3
:101980000FD100F035F8F860F86800F04FF80CE07F
:101990004FF4004000F04AF807E0144800F046F821
:1019A00003E0124800F042F800BF05E000F020F824
:1019B000F860F86800F03AF82037BD4680BD00BFF7
:1019C00000800340642C002000E1F505682C002015
:1019D0006C2C0020702C002040787D01742C00209D
:1019E000782C00207C2C0020942B002040420F00FB
:1019F00080B483B000AF0A4BD3F8503103F0040336
:101A00003B603B68002B02D1064B7B6001E0064B3C
:101A10007B607B6818460C37BD465DF8047B7047D9
:101A20000080034040787D0180F0FA0280B483B0EA
:101A300000AF78600C4A7B6813600C4A7B681360C7
:101A40000B4A7B6813600B4B0B4A1A600B4A7B688E
:101A500013600B4A7B6813600A4A7B6813600C377B
:101A6000BD465DF8047B7047642C0020682C002084
:101A70006C2C0020702C002040787D01742C0020FC
:101A8000782C00207C2C002080B483B000AF0E4B5B
:101A9000D3F84C313B603B684FF60202934203D0CF
:101AA0000A4A934203D005E001237B6005E002234C
:101AB0007B6002E000237B6000BF7B6818460C3728
:101AC000BD465DF8047B70470080034002F80100CA
:101AD00080B582B000AFFFF7D7FF78607B68012B3D
:101AE00000D002E000F004F800BF0837BD4680BD1A
:101AF00080B400AF094A094BD3F8983043F480739F
:101B0000C2F89830054A054BD3F8983023F080632B
:101B1000C2F89830BD465DF8047B704700800340F2
:101B200080B483B000AF7860044A7B68C2F8883024
:101B30000C37BD465DF8047B704700BF00300140A4
:101B400080B400AF034BD3F888301846BD465DF82B
:101B5000047B70470030014080B58AB000AFFFF7CA
:101B6000BFFD27484FF461410322FEF745FD0020E9
:101B70000521FFF7F1FD01200521FFF7EDFDAA2367
:101B8000FB7700233B6207F114037B600023BB60FB
:101B90000023FB600A233B613B1D1846AA2100F08D
:101BA0005BF807F11403184600F0DAF83B1D1846FD
:101BB000AA2100F07BF807F11F0311481946012202
:101BC000FEF752FD012000F033F80A237B6204E0A7
:101BD00000F018F87B6A013B7B627B6A002BF7DC24
:101BE00000E000BF07F11E03054819460122FEF779
:101BF0009DFD0346002BF4D0022000F019F8DAE72F
:101C0000A42D002080B483B000AF084B1B685B0A92
:101C10007B6002E07B68013B7B607B68002BF9D135
:101C20000C37BD465DF8047B704700BF642C002074
:101C300080B584B000AF0346FB71FFF7E3FFFFF709
:101C40007FFFF860FB79FA685340FB60F868FFF7A4
:101C500067FF1037BD4680BD80B485B000AF7860A7
:101C60000B46FB707B685B680133FB607B68DA685E
:101C7000FB689A4201DC0023FB607B689A68FB6882
:101C80009A4202D14FF0FF330AE07B681B687A6802
:101C900052681344FA781A707B68FA685A60002315
:101CA00018461437BD465DF8047B704780B485B094
:101CB00000AF786039607B685A687B689B689A429D
:101CC00002D14FF0FF3316E07B689B680133FB6065
:101CD0007B68DA68FB689A4201DC0023FB607B6862
:101CE0001B687A68926813441A783B681A707B689C
:101CF000FA689A60002318461437BD465DF8047BE5
:101D0000704700BF0E4B70B51E460E4C0025E41AFE
:101D1000A410A54204D056F8253098470135F8E7BD
:101D200000F08AFF084B094C1E46E41AA410002557
:101D3000A54204D056F8253098470135F8E770BD24
:101D4000502C0020502C0020502C0020542C00201F
:101D500003460244934202D003F8011BFAE770479E
:101D60000FB40A4B13B51C6824B1A36913B92046FC
:101D700000F04EF805AB2046A168049A019300F0EC
:101D80004DF902B0BDE8104004B07047E02C0020CF
:101D9000014900F0A7B800BFA928002010B50446EB
:101DA000002303604360836081814366C2810361D5
:101DB0004361836119465C300822FFF7C9FF054B78
:101DC00024626362044BA362044BE362044B23630B
:101DD00010BD00BF792500209B250020D3250020C1
:101DE000F725002070B568234D1E5D430E4605F1B2
:101DF000740100F095F8044640B1002180E84200EB
:101E00000C30A06005F16802FFF7A2FF204670BD0C
:101E1000836910B5044633BB8364C3640365124B06
:101E2000124A1B688262984204BF0123836100F05A
:101E30001FF86060204600F01BF8A060204600F00C
:101E400017F80421E06000226068FFF7A7FFA06890
:101E500009210122FFF7A2FFE06812210222FFF709
:101E60009DFF0123A36110BDA02B0020911D002028
:101E7000F8B51B4B07461E68B36913B93046FFF728
:101E8000C7FF4836B4687368013B04D4B4F90C50FA
:101E900075B16834F8E733682BB938460421FFF789
:101EA000A1FF306008B13668ECE70C233B60F8BD59
:101EB0004FF6FF73E3810123A38165662560A5606A
:101EC000656025616561A56104F15C002946082211
:101ED000FFF73EFF6563A563A564E5642046F8BD92
:101EE000A02B00202DE9F8438046894600F14804E4
:101EF000002694B1A5686768013F0CD4AB89012B1B
:101F000007D9B5F90E30013303D040462946C847FA
:101F100006436835F0E72468EBE73046BDE8F88310
:101F200070B5CC1C24F0030408340C2C38BF0C24EE
:101F3000002C064603DA0C233360002070BD8C426F
:101F4000F9D3204A136810461946A1B10A68121B3A
:101F50000ED40B2A03D90A608B188C501FE08B42D9
:101F60000BBF5A684A6802605A6018BF0B4616E0F9
:101F70000B464968E9E7144D2B681BB9304600F061
:101F8000EBFA28603046214600F0E6FA421C034690
:101F9000D1D0C51C25F0030585420AD11C6003F190
:101FA0000B001A1D20F00700821A0AD051429950E6
:101FB00070BD3046E91A00F0CFFA0130BBD02B4695
:101FC000ECE770BD602D00205C2D0020936810B5FB
:101FD000013B002B936009DA9469A34202DBCBB288
:101FE0000A2B03D1BDE8104000F00ABB1368581C4F
:101FF00010601970C8B210BDF8B506460F461446F9
:10200000D518AC4208D0304614F8011B3A46FFF709
:10201000DDFF431CF5D100E00020F8BD2DE9F043C1
:102020009DB00D4690460393064618B183690BB9DF
:10203000FFF7EEFE754B9D4201D1756808E0744BC9
:102040009D4201D1B56803E0724B9D4208BFF5681F
:10205000AB891C070AD52B6943B1002309932023C0
:102060008DF8293030238DF82A3041E0304629465A
:1020700000F01AFB0028F0D04FF0FF30C2E0039AC6
:102080000134111D12680391002ABBBF524243F074
:10209000020307920792B8BF049323782E2B7BD0BC
:1020A000DFF8808121784046032200F085FC38B1BA
:1020B000049AC8EB00004023834013430493013487
:1020C00021785548062204F101088DF8281000F007
:1020D00073FC002800F08580504B002B78D1039BC7
:1020E000073323F0070308330393099B3B44099309
:1020F00043461C4613F8012B1AB9B4EB08090ED05D
:1021000002E0252AF5D1F8E73046294642464B46FB
:10211000FFF772FF013070D0099B4B44099323787D
:10212000002B6AD000234FF0FF32049307930592EF
:1021300006938DF853301A9304F101084446DFF8F2
:10214000E89021784846052200F036FC08F10108A5
:10215000049B30B1C9EB0000012282401343049379
:10216000ECE7D80644BF20228DF85320190744BF5E
:102170002B228DF8532022782A2A80D023460799D3
:102180001C4622780133303A092A03D80A2000FB82
:102190000121F5E7079180E763782A2B0AD1039B99
:1021A00002341A1D1B680392002BB8BF4FF0FF3397
:1021B000059375E7611C00220C4623780131303B02
:1021C000092B03D80A2000FB0232F5E7059267E7E6
:1021D00003AB0093304604A92A46114BAFF30080AD
:1021E00007E003AB0093304604A92A460C4B00F0ED
:1021F00093F8421C07467FF478AFAB895B063FF546
:102200003BAF09981DB0BDE8F08300BFA42B0020B0
:10221000C42B0020E42B00200E2C00200000000026
:10222000F91F00200A2C0020042C00202DE9F8437F
:1022300091461F468A680B6906469342B8BF13460B
:10224000C9F8003091F843200C46DDF8208012B127
:102250000133C9F800302368990642BFD9F800302D
:102260000233C9F80030256815F006051CD094F833
:1022700043302268003318BF012392061FD5E118AE
:10228000302081F843005A1C94F845102244023350
:1022900082F8431013E03046394604F11902012355
:1022A000C047013007D00135E368D9F800209B1AF8
:1022B0009D42F0DBDBE74FF0FF30BDE8F8833046AE
:1022C000394604F14302C0470130F4D02268D9F8FE
:1022D0000050E36802F00602042A08BF5D1B226971
:1022E000A3680CBF25EAE57500259342C4BF9B1A7D
:1022F000ED184FF00009A9450ADA3046394604F1D5
:102300001A020123C0470130D5D009F10109F2E7D3
:102310000020BDE8F88300002DE9FF410C46174678
:10232000227E98466E2A06460A9B01F1430100F080
:10233000B08012D8632A23D00AD8002A00F0BD80CA
:10234000582A40F0CC8084F84520DFF804E257E0BA
:10235000642A1ED0692A1CD0C1E0732A00F0B18023
:1023600009D86F2A2ED0702A40F0B980226842F036
:10237000200222603FE0752A24D0782A3BD0AEE0CC
:102380001A6804F14205111D1960136884F842307F
:10239000A9E020681A6810F0800F02D0101D1860A4
:1023A00008E010F0400F02F10400186002D0B2F90A
:1023B000003000E01368002B3EDA2D225B4284F8E7
:1023C000432039E020681A6810F0800F02D0101DF9
:1023D000186007E010F0400F02F10400186001D00F
:1023E000138800E01368227EDFF864E16F2A0CBFD7
:1023F00008220A221CE07822DFF858E184F8452000
:102400002268186812F0800F00F104051D6003D1E6
:10241000550601D5038800E00368D00744BF42F0A9
:10242000200222601BB9226822F0200222601022C2
:10243000002084F8430002E0DFF814E10A22656816
:10244000002DA8BF2068A560A4BF20F00400206074
:1024500003B965B10D46B3FBF2F002FB10331EF871
:10246000033005F8013D03460028F4D100E00D4695
:10247000082A0BD12368DA0708D5236962689A42D3
:10248000DEBF302305F8013C05F1FF35491B216112
:102490002EE025681A6815F0800F606903D0151DBD
:1024A0001D60136808E015F0400F02F104051D607F
:1024B000136801D0188000E01860002323610D46E6
:1024C00016E01A68111D1960156800212846626817
:1024D00000F072FA08B1401B6060636804E004F128
:1024E000420584F8422001232361002384F843300D
:1024F000CDF800803046214603AA3B46FFF796FE02
:10250000013002D14FF0FF301FE0304639462A46F5
:102510002369C0470130F5D023689B0705D4E068E4
:10252000039B9842B8BF18460FE00025E368039A62
:102530009B1A9D42F3DA3046394604F11902012311
:10254000C0470130DED00135F0E704B0BDE8F081CE
:10255000152C0020262C002038B5064C00230546FB
:1025600008462360FFF76CF9431C02D1236803B1CE
:102570002B6038BDE42D002010B50C46B1F90E10CB
:1025800000F06CFA0028ABBF636DA3891B1823F41D
:102590008053ACBF6365A38110BD2DE9F0411D469A
:1025A0008B890746DB050C46164605D5B1F90E109A
:1025B0000022022300F0A2F9A389384623F48053B5
:1025C000A381B4F90E1032462B46BDE8F041FFF767
:1025D00029B910B50C46B1F90E1000F08FF9431C63
:1025E000A38915BF606523F4805343F48053A3810E
:1025F00018BFA38110BDB1F90E1000F0C1B80000E2
:1026000070B50D461446064618B183690BB9FFF73D
:10261000FFFB224B9C4201D1746808E0204B9C4296
:1026200001D1B46803E01F4B9C4208BFF468A36962
:10263000A360A3891A0709D523693BB123682069E0
:10264000EDB2181A636998420FDB08E03046214664
:1026500000F02AF80028F1D04FF0FF3070BD30466E
:10266000214600F021F90028F6D1A3680130013B92
:10267000A36023685A1C22601D706369984204D0CD
:10268000A389DB0707D50A2D05D13046214600F086
:102690000BF90028E0D1284670BD00BFA42B002014
:1026A000C42B0020E42B0020314B70B51D6806467A
:1026B0000C4625B1AB6913B92846FFF7A9FB2D4B92
:1026C0009C4201D16C6808E02B4B9C4201D1AC6864
:1026D00003E02A4B9C4208BFEC68A3899AB2110719
:1026E0001DD4D50602D40922326038E0500712D535
:1026F000616B41B104F14403994202D0304600F0CD
:1027000069F900236363A38923F02403A3810023D1
:10271000636023692360A38943F00803A3812369CD
:102720004BB9A38903F42073B3F5007F03D030467F
:10273000214600F0F5F8A38913F0010205D000222C
:10274000A26062695242A26103E0990758BF6269C0
:10275000A26022694AB903F0800080B230B143F030
:102760004003A3814FF0FF3070BD002070BD00BF5B
:10277000E02C0020A42B0020C42B0020E42B002000
:1027800038B5064C0023054608462360FFF700F8DD
:10279000431C02D1236803B12B6038BDE42D002017
:1027A0008A892DE9F041054610070C4657D44B683D
:1027B000002B02DC0B6C002B18DDE66AB6B102F4CC
:1027C0008052002392B22F682B600AB1626D10E034
:1027D000216A28460123B047411C024609D12B68D3
:1027E0003BB11D2B01D0162B46D12F600020BDE838
:1027F000F081A3895B0705D56368D21A636B0BB1BF
:10280000236CD21AE66A00232846216AB047461C88
:10281000A38905D12A681AB11D2A01D0162A19D117
:10282000002262602269D904226004D5421C01D1D1
:102830002B6803B96065616B2F600029D6D004F165
:102840004403994202D0284600F0C4F80020606397
:10285000BDE8F08143F04003A381BDE8F0810F693A
:10286000002FC3D093070E680CBF4B690023C7EB42
:1028700006080F608B6012E0A3894FF0FF3043F031
:102880004003A381BDE8F0812846216A3A464346C9
:10289000A66AB0470028EFDD0744C0EB0808B8F18E
:1028A000000FF1DCA2E7000038B50B6905460C46C5
:1028B000DBB118B183690BB9FFF7AAFA0C4B9C4244
:1028C00001D16C6808E00B4B9C4201D1AC6803E07D
:1028D000094B9C4208BFEC68B4F90C302BB1284678
:1028E0002146BDE83840FFF75BBF002038BD00BF80
:1028F000A42B0020C42B0020E42B002038B5074C6B
:10290000054600202060084611461A46FEF76EFF75
:10291000431C02D1236803B12B6038BDE42D002095
:10292000F0B58B8991B09D0706460C4625D4B1F9C8
:102930000E10002908DAA389002513F0800F14BFB8
:1029400040274FF480670DE001AA00F099F80028B5
:10295000F1DB029D4FF4806705F47045A5F5005149
:102960004D424D4130463946FFF7DAFA60B9A38946
:102970009A051DD443F00203A38104F147032360A9
:1029800023610123636113E00A4BB362A3892060D2
:1029900043F08003A381206167614DB13046B4F9F3
:1029A0000E1000F07FF818B1A38943F00103A38152
:1029B00011B0F0BD911D002010B5C9B20244904283
:1029C000034605D01C7801308C42F8D1184610BD62
:1029D000002010BD30B500293CD051F8042C0B1F4D
:1029E0001D49002AB8BF9B180A680C4612B95A60E4
:1029F0000B6030BD93420DD219685818904201BF48
:102A00005A5852181A60426823605A6030BD994281
:102A100003D80A4651680029F9D1146815199D4256
:102A20000AD11B682344D0188842136012D1086869
:102A3000034413604B680CE002D90C23036030BDE3
:102A40001C681819884201BF086849680019186095
:102A50005960536030BD00BF602D002038B5074C71
:102A6000054600202060084611461A46FEF7CCFEB7
:102A7000431C02D1236803B12B6038BDE42D002034
:102A800038B5074C00230546084611462360FEF77B
:102A900091FE431C02D1236803B12B6038BD00BFF7
:102AA000E42D002038B5064C002305460846236077
:102AB000FEF790FE431C02D1236803B12B6038BDA2
:102AC000E42D002000300140043001400830014076
:102AD0000C300140103001401430014018300140EA
:102AE0001C3001402030014024300140283001409A
:102AF0002C3001403030014034300140383001404A
:102B00003C300140403001404430014048300140F9
:102B10004C300140503001405430014058300140A9
:102B20005C30014060300140643001406830014059
:102B30006C30014070300140743001407830014009
:102B40007C30014032333435363738393A3B3C3DFE
:102B50003E3F404142434445464748494A4B4C4D1D
:102B60004E4F50514865617020616E6420737461EE
:102B7000636B20636F6C6C6973696F6E0A00000091
:102B80004F7574206F662068656170206D656D6F8C
:102B900072790A00000100010202030343000000F1
:102BA000802C002000000000000000000000000059
:102BB0000000000000000000000000000000000015
:102BC0000000000000000000000000000000000005
:102BD00000000000000000000000000000000000F5
:102BE00000000000000000000000000000000000E5
:102BF00000000000000000000000000000000000D5
:102C000000000000232D302B2000686C4C0065660E
:102C1000674546470030313233343536373839412D
:102C20004243444546003031323334353637383943
:102C30006162636465660000F8B500BFF8BC08BC5B
:102C40009E467047F8B500BFF8BC08BC9E4670476A
:102C5000E5040020C1040020000000000000000086
:102C60000000000000E1F50500E1F50500E1F505D3
:102C700040787D0100E1F50500E1F50500E1F5058D
:102C800000000000A42B0020C42B0020E42B002017
:102C90000000000000000000000000000000000034
:102CA0009C2B00200000000000000000000000003D
:102CB0000000000000000000000000000000000014
:102CC0000000000000000000000000000000000004
:102CD00000000000000000000000000000000000F4
:102CE000802C002000000000000000000000000018
:040000052000019145
:00000001FF
